:100000000C94FA120C942B130C942B130C942B13AA
:100010000C942B130C942B130C942B130C942B1368
:100020000C942B130C942B130C942B130C942B1358
:100030000C942B130C942B130C942B130C942B1348
:100040000C942B130C942B130C942B130C942B1338
:100050000C942B130C942B130C942B130C94206DD9
:100060000C942B130C943C6E0C94126E0C942B136A
:100070000C942B130C942B130C942B130C942B1308
:100080000C942B130C942B130C942B130C942B13F8
:100090000C942B130C942B130C942B130C942B13E8
:1000A0000C942B130C942B130C942B130C942B13D8
:1000B0000C942B130C942B130C942B130C942B13C8
:1000C0000C942B130C942B130C942B130C94E86DA1
:1000D0000C94BE6D0C942B130C94946D0C946A6D5F
:1000E0000C942B130C94B15C0C94C2400C946D16C0
:1000F0000C947E170C9473400C94C6350C947C4081
:100100000C9482180C94F1400C94E73C0C94CE5D56
:100110000C94D7520C94A0170C946A160C94071BDD
:100120000C94B44D0C9444140C94D93C0C94C81EFB
:100130000C947B320C94A61D0C94363D0C94FD5B04
:100140000C94D93B0C94B9520C949A140C9480538F
:100150000C94974C0C94D21D0C9466500C94C24E87
:100160000C94185D0C947E140C94263D0C94015C48
:100170000C94D8400C94DA180C9469310C947B1BC5
:100180000C9482580C94101C0C94B6630C948D3310
:100190000C9400480C94BB360C9482140C94B91344
:1001A0000C94583E0C946F3E0C94643E0C943E1696
:1001B0000C9429170C947F5D0C9474140C9429648E
:1001C0000C94A64C0C94623E0C9427540C94715CD5
:1001D0000C94EC170C94F42F0C943F160C94DE4BFB
:1001E0000C9495510C9490140C941E3D0C945B143B
:1001F0000C94B4510C9430130C941B400C946A145E
:100200000C946F170C94673E0C94FF1E0C94BC1D4D
:100210000C94174C0C94DD1D0C9408400C94524F18
:100220000C94FA600C94703E0C94AC400C94F85111
:100230000C94FC530C948C140C9447480C94382662
:100240000C9452440C94543E0C94D74E0C94BD50D4
:100250000C94DE510C9470140C94B15F0C948814BF
:100260000C9492170C94A9400C943D3D0C94FD16EF
:100270000C9494400C949F3D0C943E5B0C94391864
:100280000C94223D0C945F140C94374F0C94491439
:100290000C949B5E0C94BD130C9463140C94DD4081
:1002A0000C947A140C94666E0C941B480C9496145F
:1002B0000C94671400407A10F35A00A0724E18098B
:1002C0000010A5D4E80000E87648170000E40B54BD
:1002D000020000CA9A3B000000E1F505000080968C
:1002E0009800000040420F000000A08601000000BE
:1002F000102700000000E803000000006400000078
:1003000000000A00000000000100000000002C7640
:10031000D888DC674F0823DFC1DFAE59E1B1B7965B
:10032000E5E3E453C63AE651997696E8E6C28426B8
:10033000EB898C9B62ED407C6FFCEFBC9C9F40F294
:10034000BAA56FA5F490055A2AF75C936B6CF96710
:100350006DC11BFCE0E40D47FEF520E6B500D0EDD5
:10036000902E0300943577050080841E080000203D
:100370004E0A000000C80C333333330F986E1283DB
:100380001141EF8D2114893BE65516CFFEE6DB18AF
:10039000D1844B381BF77C1D901DA4BBE424203274
:1003A00084725E228100C9F124ECA1E53D276364DB
:1003B000696E6F70737578585B001911830981013C
:1003C000810781038203800080068101810080070C
:1003D000837F7F2C01830A820A810A810A810A8134
:1003E0000A810A810A810A810A810B810B820881B4
:1003F00009810A810A810A810A810A810A810A81A6
:100400000A81098207831304810A810A810A810A09
:10041000810A810A810A810A810A810A810A810A84
:10042000810A810A810A810A810A810A810A810A74
:10043000810A810A810A810A811206830782098161
:100440000A810A810A810A810A810A810A810A8154
:10045000098108820B810B810A810A810A810A8144
:100460000A810A810A810A810A820A830E48890167
:10047000890882078207820782088108820782072B
:1004800082078208890189544D8206820081068193
:100490000181068102810481038104810381048139
:1004A000048102810581028105810281068100812A
:1004B0000781008107810081088209820982098100
:1004C000098206840783144E810681018204820218
:1004D00081048104810281058200820684088208E9
:1004E00084068200820581028104810481028204E3
:1004F00082018106815B6B81048204810081048218
:1005000004810081048000800481018102810081D6
:1005100002810281028100810281028102810081C7
:1005200002810281028002800281038100810281B6
:1005300000810481008102810081048100810281A7
:1005400000810582048206820482068204827F0181
:100550004781068100810681018104810281048135
:10056000028104810381028104810281048102816C
:100570000581008106810081068407820882585522
:100580008106810281068102810681028106810243
:100590008106810281068102810681028106810233
:1005A0008106810281058202820383038600810421
:1005B000840181620F8104810481048102850085A8
:1005C0000281048104810481048104810481048105
:1005D000048104830382314A8405870282038102F5
:1005E00081058101810A84078607840981018105CB
:1005F0008101820382028704855631810082018550
:1006000001820481058105810581058105810581BE
:100610000581058105813B5E83018104860081039C
:10062000830184038105820282068102810781029F
:10063000810781028107810282068103810582038D
:1006400083018404860081068301810C810C810C66
:10065000810C810C811F5B810183068100860484EB
:100660000183038205810381068202810781028161
:10067000078102810781028106820282058103844B
:100680000183038100860481018306810C810C8132
:100690000C810C81285E8407880483028303810611
:1006A000810282068201810881018108810181081D
:1006B0008101820682028106810383028304880706
:1006C000846D5B810184058100860483038203823B
:1006D00005810381068103810681038106810381EF
:1006E00006810381068103810681038106810381DE
:1006F0000681038106816A7F058101830383058169
:1007000000850086048302840282038204820481BD
:1007100003810581058103810581058103810581AF
:10072000058103810581058103810581058103819F
:10073000058105810381058105810381058105818D
:100740000381058105817F1B07810381038103816B
:100750000381038103810381038103810381038179
:100760000381038103810381038103812B198109A3
:100770008109810981098104820181038202810248
:10078000820381018204810082058505860482013D
:100790008104810282038103810381038202810437
:1007A0008102810482530781038103810F810381C8
:1007B0000381038103810381038103810381038119
:1007C0000381038103810381038103810381018309
:1007D0000182080781038103810F81038103810363
:1007E00081038103810381038103810381038103E9
:1007F0008103812B10810C810C810C810C810C8177
:1008000001840581008604830382038205810381BC
:1008100006810381068103810681038106810381AC
:10082000068103810681038106810381068103819C
:1008300006816A5E8301810486008103830184034B
:10084000810582028107810281078102810781027D
:10085000810781028206810381058203830184046A
:10086000860081068301810C810281078102810655
:10087000820382038204890685130A83028402812B
:100880000581058103860086028105810581058138
:1008900005810581058105810581058105813B581B
:1008A0008307870483018303810581028206810116
:1008B0008B018B01810B820B8105820283018304F2
:1008C0008707836619810C810C810C810C8106835A
:1008D00001810486008103830184038105820282F1
:1008E00006810281078102810781028107810282DC
:1008F00006810381058203830184048600810683C7
:1009000001816A5283068703830182038105810185
:100910008209810A810A810A820581028105810298
:10092000830182048706835E10810C810C810C8117
:100930000C810C810183068100860484018303827B
:10094000058103810682028107810281078102817C
:10095000078102810682028205810384018303816B
:100960000086048101836D57850588048104820314
:100970008105810B81058703890282058102810639
:10098000810281068102820383038600830284023E
:1009900082610B83038501820182008103810081D2
:1009A000038100820182018503837F1A7F7F1D8C72
:1009B0002610820781008105810281038104810163
:1009C0008106817F6F098403840681068106810682
:1009D00081068106810681068106810681068106DF
:1009E00081068106810681068106810681068103D2
:1009F0008403841401800B800B810B800B800B819E
:100A00000B800B800B810B800B800B810B800B808C
:100A10000B810B800B800B810B800B800B810B807B
:100A20000B800B810B800E0B8403840381068106EF
:100A3000810681068106810681068106810681067E
:100A4000810681068106810681068106810681066E
:100A5000810684038412118C028C0C820B820B821F
:100A60000C810C810C820B820B820C810C810C821C
:100A70000B820B820B820C8D018D700F820982001C
:100A80008207820281078103820582048105810633
:100A900081038107820182088101810A830B830C13
:100AA000810D810D810D810D810D810D810D81766D
:100AB0000F810881018206820281068104810481FE
:100AC00005820282068102810881008109840A82EE
:100AD0000B820A81008108820082078102810681DF
:100AE00004810482048203810681028206820082DC
:100AF00008826816820682068200810682068101CB
:100B000081068206810182048100810482028104BF
:100B100081008104810381048100810481038104B7
:100B200081008104810382028102810282048102A8
:100B30008102810281058102810281028105810297
:100B40008102810281058200810481008206810088
:100B50008104810081078100810481008107810077
:100B60008104810081078306830882068209820648
:100B7000827F250E8208820081088101810881011F
:100B80008108810281068103810681038106810437
:100B90008104810581048105810481068102810728
:100BA0008102810781028108810081098100810918
:100BB000840A820B826E138109810381098103817A
:100BC00009810381098103810981038109810381ED
:100BD00009810381098103810981038109810381DD
:100BE00009810381098103810981038109810382CC
:100BF000078204820582068908877F020D9B058192
:100C00000B810B810B810B810B810B810B810B8184
:100C10000B810B810B810B810B810B810B81671485
:100C20008507890482058203810781038107810387
:100C300081078202820D840B860B850C830D820155
:100C40008208810281088102810881028305820372
:100C50008A068673128B048C0381088202810981C3
:100C60000281098102810981028109810281088151
:100C7000038C038B0481078203810881038108822E
:100C80000281098102810981028109810281098130
:100C900002810981771886098A0683048304820801
:100CA0008203810A8102820A8201810C8101810C06
:100CB0008101810C8101810C8101810C8101810CF8
:100CC0008101820680028202810582018103820500
:100CD0008504830483068C07860182108073118A41
:100CE000048B0381078202810881028108810281CD
:100CF00008810281088102810782028B038A0481B4
:100D00000D810D810D810D810D810D810D817B186E
:100D100086098A068304830482088203810A810289
:100D2000820A8201810C8101810C8101810C810187
:100D3000810C8101810C8101810C8101820A820276
:100D4000810A810382088204830483068A09867FDC
:100D50000A138208810382088103830781038406C2
:100D60008103810081068103810082058103810165
:100D70008204810381028104810381028203810351
:100D80008103820281038104810281038104820143
:100D90008103810582008103810681008103810630
:100DA000840381078303810882038108827F16827E
:100DB0000A820383088303830883038308830381F0
:100DC0000081068100810381008106810081038109
:100DD00000810681008103810181048101810381F9
:100DE00001810481018103810181048101810381E9
:100DF00002810281028103810281028102810381D9
:100E000002810281028103810381008103810381C8
:100E100003810081038103810384038103810482B0
:100E200004810381048204817F140E810A810A8176
:100E30000A810A810A810A810A810A810A810A815A
:100E40000A810A810A810A810A810A8A018A5A1260
:100E5000810882028107820381068204810582055E
:100E6000810482068103820781028208810182094E
:100E70008100830987088301820782038206810536
:100E8000810681058205810682048107820381082B
:100E900082028109827615810A810A810A810A818A
:100EA0000A810A810A810A810A810A810A810181F3
:100EB0000681018106810181068101820482028806
:100EC00004865E078103810381038103810381031B
:100ED00081038103810381038103810381038103F2
:100EE000810381038103812B13810981038109819E
:100EF00003810981038109810381098103810981BA
:100F000003810981038D038D038109810381098197
:100F10000381098103810981038109810381098199
:100F20000381098103810981038109817F18860971
:100F30008A06820583048208810481098202820F65
:100F4000811081108105870281058702810B810252
:100F5000810B8102820A8103810982038207830453
:100F600083048405890081078503807F06108B0236
:100F70008B02810C810C810C810C810C810C8A0309
:100F80008A03810C810C810C810C810C810C810CF9
:100F90008173118C028C02810D810D810D810D8177
:100FA0000D810D8B038B03810D810D810D810D81D1
:100FB0000D810D8C028C701389078B0581068304CB
:100FC000810882038109810381098202810A8102E9
:100FD000810A8102810A8102810A8102810A8102D9
:100FE000810A8102810982028109810381088203C9
:100FF000810683048B05897F031786088A0583048D
:10100000830382088103810A8101820A8101810FA1
:10101000810F810F810F810F810B8101820A810273
:101020008109820282088104830483058A08867FFD
:1010300002128A058C0381078203810881038108DB
:1010400081038108810381088103810782038A0566
:101050008C03810782038109810281098102810950
:10106000810281098102810782038C038A7A1583B8
:101070000B830B830A81018109810181098101812F
:10108000088103810781038107810381068105812E
:10109000058105810589048B03810781038107810F
:1010A0000281098101810981008209826F21880DF5
:1010B00082068209820A8107810D8105810F8104E0
:1010C00080068301800381028104810283038102FF
:1010D00081038104810481018104810481048101EF
:1010E00081038105810481018103810581048101DE
:1010F00081038104810481028103810481048102CE
:1011000081038104810381048103810282028105BC
:1011100081048301840781178117810B810982056E
:10112000830D876C10850488038203820182058108
:101130000181068101810681098208820882088274
:101140000981098209822382098209825F62820CF5
:10115000820C830C820D8108820783078208827FBC
:10116000155186018613860186636B820882078388
:10117000078208810D820D820C820C827F0C2B82EB
:101180000382038234820382038205800481048007
:101190000481172B8203820382348203820382320A
:1011A0001F850588048203820282058102810781EE
:1011B0000181078101810781018205820282038307
:1011C000028A048401810B810181068102810681EA
:1011D00003810482038805866520830787058103D0
:1011E00081048105810381058103810581048103D7
:1011F00081068506870482038202810781018107B7
:1012000081018107810181078102820382038905AF
:1012100085651C8B018B0A810A8209820A810A82F8
:101220000A810A810B810A820A810B810B810A8162
:101230000B810B8169208406880382048103810667
:10124000810281068101810B810184048A0283036A
:101250008202820582018107810181078101810764
:1012600081028105820282038204880585651D89C9
:10127000038903810B810B810B8100840589028323
:101280000382028106820B810B810B810181078120
:101290000182058202820382038905856524810A11
:1012A0008209830983088100810781018106810207
:1012B0008106810281058103810481048103810506
:1012C00081038B018B09810B810B810B81641F854D
:1012D00006870482038203810581028205810B81D6
:1012E0000A82078408850B820B81018107810181B5
:1012F0000781018205820282038203890585651FB9
:1013000085058903820382028206810181078101AA
:101310008107810B810A820883078406840783087A
:101320008209820A810B8B018B6222810B810A82E6
:10133000078507850B810B810B810B810B810B814D
:101340000B810B810B810B810B810B816620830745
:10135000870483018303810581028205820181075D
:101360008101810781018107810181078101810755
:101370008101810781018107810182058202810546
:10138000810383018304870783660D8105810580BE
:10139000058105810580058105810580058105811F
:1013A0000580058105810580058105810580058110
:1013B00005812D718203820382325885018568710F
:1013C0008203820382058004810480048117538193
:1013D00007810781048701870481078107816710DE
:1013E00081098109810680018101800289038506C6
:1013F000830681018104820182048003807F360795
:1014000081068006810680068105810581068105A9
:10141000810581058105810581058105810581059C
:101420008104810581058105800581058005810D87
:101430000D81058005810580058105810581048177
:10144000058105810581058105810581058105816C
:101450000581068105810581068006810680068159
:10146000070682028202820480038102817415844D
:101470000A8608820282078104810781048107812C
:101480000382088101820A840A830B850381038217
:10149000018202810282038201810281058403812B
:1014A0000683038107810482048503880182038502
:1014B0000482762D820781058605800681028104DB
:1014C00081058104810281068104810280078104F3
:1014D000810181088102810280098601800C8202DB
:1014E0008102820C800186098002810281088101CB
:1014F00081048107800281048106810281048105C3
:101500008104810281068005860581078207807F2C
:101510000C14800A83078704820180008203810201
:101520008001810381028001820282018008840996
:10153000840B830984088001820182028002810277
:101540008102800281028300800182038806840A6E
:1015500080672E8101810C8002800D8002800C81C9
:1015600001810C8002800D800280088D088002803D
:101570000D8002800D800280088D088002800D8021
:1015800002800C8101810C8002800D8002800C8120
:1015900001817F0D0980018003800180038001802B
:1015A000038001800380018003800180038001802B
:1015B0007F110A81058105810581058105810581EC
:1015C00005810581058105810581058115810581DB
:1015D00005813A7F010000304848300000000000DB
:1015E0000000000000000000324C0000000000007D
:1015F000000000000000402020202020201020209B
:1016000020202020400000404040404040404040DA
:10161000404040400000102020202020204020207A
:101620002020202010000000000000FC04083040B2
:1016300080FC00000000000000000084848484849A
:101640004C340408700000000000008888502050CE
:1016500088880000000000000000008282829292D0
:10166000AA44000000000000000000828282824440
:10167000281000000000000000000084848484849E
:101680004C34000000000000004040E0404040407A
:1016900040300000000000000000007088807008EA
:1016A0008870000000000000000000B0C88080804A
:1016B0008080000000000000000000344C8484841E
:1016C0004C34040406000000000000B0C884848488
:1016D000C8B0808080000000000000384482828210
:1016E0004438000000000000000000B0C88484847A
:1016F0008484000000000000000000ACD2929292AE
:101700009292000000000000C04040404040404035
:1017100040400000000000008080808890A0C0A0B1
:101720009088000000000000001000301010101021
:101730001010109060000000004000404040404009
:101740004040000000000000808080B0C884848495
:101750008484000000000000000000304C84848479
:101760004C340408700000003048404040E04040E5
:101770004040000000000000000000384484F88071
:101780004438000000000000000404344C848484C9
:101790004C340000000000000000003844808080CD
:1017A0004438000000000000008080B0C8848484B9
:1017B000C8B0000000000000000000700804748C35
:1017C0008C74000000000000609090600000000039
:1017D0000000000000000000000000000000000009
:1017E000000000FF000000000000000000000000FA
:1017F000000000000000102844000000000000006D
:1018000000000000000000000000000000000000D8
:1018100000000000000000E02020202020202020E8
:101820002020E000000000808040402020101008B0
:1018300008040400000000E08080808080808080B8
:101840008080E00000000000FE020408101020402C
:1018500080FE0000000000008282824428101010E8
:10186000101000000000000082824428101028445C
:1018700082820000000000000000008080808080E4
:101880008088808880490055005500220022000091
:101890000000000000000000828282824444282868
:1018A0001010000000000000828282828282828208
:1018B0004438000000000000FE101010101010103E
:1018C000101000000000000038448280601C02827A
:1018D0004438000000000000F884828284F8908878
:1018E000848200000000000038448282828282826A
:1018F0004438080600000000F88482828284F88060
:10190000808000000000000038448282828282824F
:101910004438000000000000C2C2A2A292928A8A4B
:101920008686000000000000000000C180C180A287
:1019300080A28094809480888088808080808000CD
:101940000000000000000000808080808080808097
:1019500080FC000000000000848890A0C0A0908857
:1019600084820000000000000202020202020282E1
:101970004438000000000000E0404040404040404B
:1019800040E000000000000084848484FC8484849F
:1019900084840000000000003C428080809C8282A1
:1019A000423C000000000000FE808080F8808080C3
:1019B0008080000000000000FE808080FC8080802D
:1019C00080FE000000000000F88482828282828211
:1019D00084F80000000000003C428080808080800D
:1019E000423C000000000000F8848284F884828277
:1019F00084F80000000000001010282844447C8275
:101A000082820000000000003C4299A5A5A5A59E89
:101A1000403E00000000000038448202040810101C
:101A2000001000000000000000804020100810207E
:101A3000408000000000000000000000F800F800F6
:101A4000000000000000000000081020408040203E
:101A50001008000000000000000000C0C000C0C06E
:101A60004080000000000000000000C0C000C0C0B6
:101A7000000000000000000038448282463A020262
:101A80000478000000000000384482443844828218
:101A900044380000000000007E0202040408081020
:101AA00010100000000000003C408080B8C482821A
:101AB0004438000000000000FC808080F80402022E
:101AC0008478000000000000040C14244484FE0408
:101AD00004040000000000007884020438040202BC
:101AE000847800000000000038448202041820407E
:101AF00080FE000000000000103050101010101088
:101B0000107C00000000000038444482828282443D
:101B10004438000000000004040808101020204091
:101B20004080800000000000000000000000000075
:101B3000C0C00000000000000000000000F800002D
:101B40000000000000000000000000000000000095
:101B5000C0C04080000000000000002020F82020CD
:101B60000000000000000000001092543854921051
:101B7000000000000000C020100808040404040451
:101B800008081020C0000C10204040808080808019
:101B9000404020100C000040404080000000000049
:101BA0000000000000000000205088885020528C67
:101BB0008C730000000000006191926408102649B7
:101BC0008986000000000028386CAAA8683C2AAA70
:101BD0006C38280000000000242424FF2424FF2463
:101BE00024240000000000A0A0A0000000000000CD
:101BF00000000000000000004040404040404040E5
:101C00000040000000000000000000000000000094
:101C1000000000000000050808130E151106080852
:101C20000C0A070807080E0E0E0E0E0E0E0E0E0EF4
:101C300007070E090E0D1910111212100F131206BC
:101C40000D110D151213101311100E120F170F1086
:101C500010090D090C0D090E0F0D0F0E080F0F06C0
:101C6000060C06160F0F0F0F080C070E0C120D0DA9
:101C70000C0D0D0D0F01D315B2159415521511153C
:101C8000B3146E1461143014FF13DF13CE13BF139B
:101C9000BA13B3138A134D132A13FF12CE129D12D7
:101CA0006E1235121212D911A01193117E116A1100
:101CB00061114D112411AD106E103110F90FB70FD5
:101CC000920F6D0F2D0FE80EC30E960E4F0E2A0EBB
:101CD000AE0D510D0F0DDE0C950C540C1F0CFC0BB2
:101CE000B60B730BF30AB00A7B0A560A270AF409EB
:101CF000C509B109AC099209670928090309C40893
:101D00009F087A083308F407D307A6076D0748072A
:101D1000F706C206950656061706FA05D705B40556
:101D20007F055005F604C70488046D043A040704CF
:101D3000D403BB03BA03151C204D41534B3D002077
:101D4000444E533D002047573D004C6F63616C3D4E
:101D500000290020280020536F636B3D307800007D
:101D6000000000003E5B4F5B3E3E6B4F6B3E1C3EF7
:101D70007C3E1C183C7E3C181C577D571C1C5E7F0B
:101D80005E1C00183C1800FFE7C3E7FF001824188A
:101D900000FFE7DBE7FF30483A060E2629792926BF
:101DA000407F050507407F05253F5A3CE73C5A7FA9
:101DB0003E1C1C08081C1C3E7F14227F22145F5FFF
:101DC000005F5F06097F017F006689956A60606039
:101DD000606094A2FFA29408047E040810207E2074
:101DE0001008082A1C08081C2A08081E10101010C9
:101DF0000C1E0C1E0C30383E3830060E3E0E06000F
:101E00000000000000005F00000007000700147FD2
:101E1000147F14242A7F2A12231308646236495639
:101E200020500008070300001C2241000041221C32
:101E3000002A1C7F1C2A08083E0808008070300019
:101E40000808080808000060600020100804023E2E
:101E50005149453E00427F4000724949494621416F
:101E6000494D331814127F1027454545393C4A49DE
:101E7000493141211109073649494936464949291D
:101E80001E0000140000004034000000081422412D
:101E90001414141414004122140802015909063EB6
:101EA000415D594E7C1211127C7F494949363E41B1
:101EB0004141227F4141413E7F494949417F0909D2
:101EC00009013E414151737F0808087F00417F416D
:101ED000002040413F017F081422417F40404040A4
:101EE0007F021C027F7F0408107F3E4141413E7FFC
:101EF000090909063E4151215E7F091929462649F3
:101F000049493203017F01033F4040403F1F2040C9
:101F1000201F3F4038403F631408146303047804D3
:101F2000036159494D43007F41414102040810209B
:101F3000004141417F040201020440404040400012
:101F40000307080020545478407F2844443838441C
:101F5000444428384444287F385454541800087E98
:101F6000090218A4A49C787F0804047800447D40EA
:101F7000002040403D007F1028440000417F400089
:101F80007C047804787C080404783844444438FCA1
:101F90001824241818242418FC7C08040408485425
:101FA00054542404043F44243C4040207C1C2040E2
:101FB000201C3C4030403C44281028444C909090D9
:101FC0007C4464544C440008364100000077000013
:101FD000004136080002010204023C2623263C1E72
:101FE000A1A161123A4040207A38545455592155E4
:101FF0005579412154547841215554784020545505
:1020000079400C1E52721239555555593954545451
:102010005939555454580000457C410002457D42D1
:102020000001457C40F0292429F0F0282528F07C87
:10203000545545002054547C547C0A097F49324948
:102040004949323248484832324A4848303A414198
:10205000217A3A42402078009DA0A07D3944444432
:10206000393D4040403D3C24FF2424487E4943669E
:102070002B2FFC2F2BFF0929F620C0887E09032077
:10208000545479410000447D413048484A32384038
:1020900040227A007A0A0A727D0D19317D2629299B
:1020A0002F28262929292630484D4020380808089D
:1020B0000808080808382F10C8ACBA2F102834FABE
:1020C00000007B000008142A142222142A14085548
:1020D00000550055AA55AA55AAFF55FF55FF000007
:1020E00000FF00101010FF00141414FF001010FF68
:1020F00000FF1010F010F0141414FC001414F7007A
:10210000FF0000FF00FF1414F404FC141417101F48
:1021100010101F101F1414141F00101010F00000D6
:1021200000001F101010101F10101010F0100000F1
:1021300000FF101010101010101010FF1000000001
:10214000FF140000FF00FF00001F10170000FC0438
:10215000F414141710171414F404F40000FF00F71B
:1021600014141414141414F700F71414141714107E
:10217000101F101F141414F4141010F010F00000AD
:102180001F101F0000001F14000000FC140000F0CE
:1021900010F01010FF10FF141414FF141010101F73
:1021A00000000000F010FFFFFFFFFFF0F0F0F0F084
:1021B000FFFFFF0000000000FFFF0F0F0F0F0F38A1
:1021C000444438447C2A2A3E147E02020606027EDB
:1021D000027E0263554941633844443C04407E20FA
:1021E0001E2006027E020299A5E7A5991C2A492A0B
:1021F0001C4C7201724C304A4D4D3030487848309A
:10220000BC625A463D3E494949007E0101017E2A91
:102210002A2A2A2A44445F444440514A44404044C4
:102220004A51400000FF0103E080FF000008086BF6
:102230006B083612362436060F090F0600001818F0
:102240000000001010003040FF0101001F01011EBE
:1022500000191D1712003C3C3C3C00000000000629
:102260000304090809090307070806030605070808
:1022700008080808080808080803030606060809ED
:102280000808080808080808040808070A080808D1
:102290000808080808080A080808040704070905C8
:1022A00007070707070607070405060408070807C6
:1022B00008060605070808060707050305080605BA
:1022C0001CF51BE51BD51BC51BB51BA51B951B854D
:1022D0001B751B651B551B451B351B251B151B053E
:1022E0001BF51AE51AD51AC51AB51AA51A951A8535
:1022F0001A751A651A551A451A351A251A151A0526
:102300001AF519E519D519C519B519A5199519851C
:10231000197519651955194519251915190519F54D
:1023200018E518D518C518B518A5189518751865A5
:102330001855184518351825181518F517D517C547
:1023400017B517A5179517851775176517551745ED
:10235000173517251715170517F516E516D516C5E0
:1023600016B516A5169516851675166516551645D5
:10237000163516251615160516F515E515D5152D60
:102380002D2D20312D6D696E206176657261676536
:1023900073207265616479202D2D2D0048545450AE
:1023A00020504F535420636F6E6E65637428686FBE
:1023B000737429206661696C656400206D7329005F
:1023C0002075732020287E003A20005B545D200099
:1023D000206D7329002075732020287E003A20008C
:1023E0005B545D2000206D73290020757320202828
:1023F0007E003A20005B545D2000206D7329002090
:1024000075732020287E003A20005B545D20002058
:102410006D7329002075732020287E003A20005B10
:10242000545D2000206D7329002075732020287EC4
:10243000003A20005B545D2000206D732900207558
:10244000732020287E003A20005B545D20000000AD
:102450000A0B02090C0D0E0807030401000000001E
:10246000000000000000000000000000000000006C
:102470000000000000000000000012111000000029
:10248000000000000000000000000000000000004C
:10249000000000002D2D2D2D2D2D2D2D2D2D2D2D20
:1024A0002D2D2D2D2D2D2D2D2D2D00206279746596
:1024B000733A005265637620002062797465733A3E
:1024C0000053656E742000206D7300436F6E6E655F
:1024D0006374204F4B20696E2000206D7300436FA2
:1024E0006E6E656374204641494C454420696E20F8
:1024F000003A00436F6E6E65637420000000220096
:10250000250028002B002E003100340002010000BD
:10251000050108010B0100002100240027002A000A
:102520002D003000330001010000040107010A0101
:1025300005050505070508080808020202020A0A3F
:10254000080804040404010101010101010103035D
:10255000030303030303040707070C0C0C0C0C0C08
:102560000C0C0202020206060606060606060B0B05
:102570000B0B0B0B0B0B0102102020080810204046
:102580001020408002010201080402010102040837
:1025900010204080804020100804020180040201C5
:1025A000804020100804020108040201010204080E
:1025B0001020408001020408102040805F1D260288
:1025C0000000361D26020807BF225F22100D361DAF
:1025D00026020000761C161C1A13361D2602000067
:1025E000361D26020000361D26020000361D26027A
:1025F0000000666E11241FBECFEFD1E2DEBFCDBF5B
:1026000000E00CBF1CE0A0E0B2E0E8ECF2E201E088
:102610000BBF02C007900D92AC30B107D9F725E18E
:10262000ACE0BCE001C01D92AD33B207E1F712E1AE
:10263000CAEFD2E100E006C021970109802FFE0118
:102640000E942E87C93FD10780E00807A9F70E94A2
:102650000F710C9462910C9400008CBD9DBD089587
:10266000FC01EB58FF4F2081222331F083599F4F0B
:10267000FC018081918108958F5B9F4FF9CF0F936B
:102680001F93CF93DF938C01DB01ED91FC91DF0170
:102690001196EB01B983A883EC01CE0FDF1F98815F
:1026A000292F30E08091DE148823C9F097FF17C0EE
:1026B000892F807E803CC9F441305105B1F03296BB
:1026C000EB01F983E883A00FB11F8C918F7346E073
:1026D000220F331F4A95E1F7207C3770282BC90160
:1026E000DF91CF911F910F910895907F903EB9F7A0
:1026F00043305105A0F3CF010296EB019983888303
:10270000A00FB11F4C91D0E44D9FA0011124407C3B
:102710005F703396DB01ED93FC93D801A80FB91FCE
:102720008C918F73322F22273295307F282B242BC8
:10273000352BD5CF90E0FC01EA58FA4D2491805D0D
:102740009A4DFC018491882399F090E0880F991F9D
:10275000FC01EA5EFA4DA591B491FC01E450FB4DF9
:10276000859194918FB7F894EC91E22BEC938FBF05
:102770000895FC01818D928D08950895CF93DF9384
:10278000EC019A01AB01E889F98982E08083211587
:1027900081EE38074105510581F160E079E08DE374
:1027A00090E00E94ED86215031094109510956956A
:1027B000479537952795EC85FD851082EE85FF8539
:1027C0002083188EEC89FD8986E08083EA89FB8965
:1027D000808180618083EA89FB8980818860808331
:1027E000EA89FB89808180688083EA89FB8980810E
:1027F0008F7D8083DF91CF910895E889F9891082D8
:1028000020E1D9CF20E3FC0120833296862F8295E8
:102810008F706F706A3030F4605D6293682F811141
:10282000F5CF0895695CF9CF282F30E0F901E25B1C
:10283000FB4D9491F901EA58FA4D4491205D3A4DCF
:10284000F9012491222309F435C0992311F1915003
:102850009231F8F4E92FF0E08827EE5CFB4E8F4FC1
:102860000C942E876314671444145B145F1449148A
:102870006A14701474147A147E14821488148C14DC
:102880004914901496149A14809180008F77809345
:102890008000E22FF0E0EE0FFF1FE450FB4DA5910A
:1028A000B4918FB7F894EC91611148C040954E23D4
:1028B0004C938FBF0895809180008F7DE8CF8091E9
:1028C0008000877FE4CF84B58F7784BDE2CF84B565
:1028D0008F7DFBCF8091B0008F778093B000D9CFF0
:1028E0008091B0008F7DF9CF809190008F77809399
:1028F0009000CFCF809190008F7DF9CF8091900094
:10290000877FF5CF8091A0008F778093A000C1CF03
:102910008091A0008F7DF9CF8091A000877FF5CFB7
:10292000809120018F7780932001B3CF8091200187
:102930008F7DF9CF80912001877FF5CF4E2BB8CFC7
:10294000CF93CFB7F89480913F0F811124C0E5E673
:10295000F5E28491EBEAF5E29491E82FF0E0EE0FD6
:10296000FF1FEA5EFA4DA591B491EC91E92321F4A1
:1029700061E085E30E94141485E30E949A138CB5EC
:1029800080618CBD8CB580648CBD84E30E949A13F9
:1029900083E30E949A1380913F0F8F5F80933F0FD4
:1029A000CFBFCF9108953FB7F89480913B0F90919E
:1029B0003C0FA0913D0FB0913E0F26B5A89B05C0DE
:1029C0002F3F19F00196A11DB11D3FBFBA2FA92FAE
:1029D000982F8827BC01CD01620F711D811D911DAB
:1029E00042E0660F771F881F991F4A95D1F7089517
:1029F0008F929F92AF92BF92CF92DF92EF92FF920F
:102A00004B015C010E94D3146B017C010E94D31422
:102A10006C197D098E099F09683E734081059105F7
:102A2000A8F321E0821A9108A108B10888EEC80E27
:102A300083E0D81EE11CF11C81149104A104B104AF
:102A400029F7FF90EF90DF90CF90BF90AF909F90CD
:102A50008F9008952FB7F8946091370F7091380FC9
:102A60008091390F90913A0F2FBF08958F929F92C6
:102A7000AF92BF92EF92FF920F931F93CF93DF938A
:102A8000CDB7DEB7DA950FB6F894DEBF0FBECDBF77
:102A90008091E112898383E08A838091E212909190
:102AA000E3129B838C838091E4129091E5129D83C5
:102AB0008E83CE0101967C01AE01495F5F4FFC0120
:102AC0008FEF9FEF87012191822728E030E0BC0142
:102AD0006170772796958795672B21F0A1E08A276B
:102AE000A0EA9A272150310991F7E417F50759F721
:102AF0008F83988719868091DF129091E012DC0114
:102B0000ED91FC910284F385E02D1995019699F7DA
:102B1000E091F513F091F613309709F019955701EC
:102B2000E8E0AE0EB11C8091DF129091E012D70167
:102B30006D917D01DC01ED91FC910190F081E02D22
:102B40001995EA14FB0479F78091DF129091E01255
:102B5000DC01ED91FC910680F781E02D1995E09163
:102B6000F713F091F813309709F019950E942A1580
:102B70004B015C01F12C88E0E82E8091DF129091EE
:102B8000E012DC01ED91FC910084F185E02D1995B6
:102B9000892B09F44BC08091DF129091E012DC0187
:102BA000ED91FC910284F385E02D1995F801EF0D6C
:102BB000F11D8083EA94F394B5E0FB1260C0998123
:102BC0008091E112981315C1EA818E2F8F7783309F
:102BD00009F011C1E7FF33C08B81811162C02FEF73
:102BE0003FEFE0E08F2D90E0AC01425051096E2F95
:102BF00070E0641775070CF0ADC0600F711FDB014A
:102C00006C91262768E070E0D901A170BB2736954A
:102C10002795AB2B21F0B1E02B27B0EA3B27615081
:102C2000710991F7EF5FE3CF82EE36C0E091F313C5
:102C3000F091F413309709F4BFCF1995BDCFE3504D
:102C4000E531E8F4F0E08827E75DF94E8F4F0C940A
:102C50002E873E163E166D166D163F163F163F1612
:102C60003F163F163F163F163F166D166D163F1660
:102C70003F163F163F163F166A163E16EB800E941F
:102C80002A15681979098A099B096739710581052F
:102C9000910508F0C9CF80E0EE2011F1882309F4F6
:102CA0006CCF1092EC131092EE131092ED13109261
:102CB000F113D3950FB6F894DEBF0FBECDBFDF91F1
:102CC000CF911F910F91FF90EF90BF90AF909F9089
:102CD0008F900895B5E0EB2ED2CFA3E0EA2ECFCFB0
:102CE0008111DFCFE4E0EF1508F479CF8A818530D8
:102CF00030F4833030F48130E0F580E0D2CF87319A
:102D0000E1F76B8170E0759567952091F21340E0D3
:102D1000842F90E0861797070CF068C04034B8F411
:102D20009C012E5F3F4F220F331F880F991FFC011C
:102D3000E152FD4EDE01A20FB31F8C91200F311F17
:102D4000D9019C9189279827892790878783242FE9
:102D50004F5FDECF400F511FFA014081421307C081
:102D60008C0F9D1FDC018C91831709F4BFCF83EE7C
:102D700098CF6B81462F50E0559547953091F213CF
:102D800020E0822F90E084179507E4F42034B8F413
:102D9000880F991FFC01E152FD4EA5E0B0E0AC0F99
:102DA000BD1FA80FB91F3C91A4E0B0E0AC0FBD1F40
:102DB0008A0F9B1FDC018C91932F90878783322F82
:102DC0002F5FDFCF3093F21360FF97CF203468F48A
:102DD000880F991FFC01E152FD4E8C0F9D1FDC01F5
:102DE00014968C9190E0908787832F5F2093F21345
:102DF00084CF80EE56CF81EE54CF0895DC01ED9163
:102E0000FC910190F081E02D1994EF92FF920F93C5
:102E10001F93CF93DF938C017B01D0E0C0E0F701DB
:102E2000EC0FFD1F6491662361F0D801ED91FC91D8
:102E30000190F081E02DC8011995892B11F02196A0
:102E4000EECFCE01DF91CF911F910F91FF90EF90C8
:102E50000895AF92BF92CF92DF92EF92FF920F93BD
:102E60001F93CF93DF936C017B018B01040F151F20
:102E7000EB015E01AE18BF08C017D10759F0699188
:102E8000D601ED91FC910190F081E02DC6011995DC
:102E9000892B79F7C501DF91CF911F910F91FF9099
:102EA000EF90DF90CF90BF90AF900895FC01A08984
:102EB000B1898C91A689B78982FD0FC09C91818DC3
:102EC0008F5F8F73228D821749F0A18DAE0FBF2FB8
:102ED000B11D5D969C93818F08958C910895FC019E
:102EE000538D448D252F30E0842F90E0821B930B6F
:102EF000541710F0CF96089501970895FC01918D15
:102F0000828D981761F0A28DAE0FBF2FB11D5D9617
:102F10008C91928D9F5F9F73928F90E008958FEFB9
:102F20009FEF0895FC01918D828D981731F0828D6D
:102F3000E80FF11D858D90E008958FEF9FEF0895C4
:102F4000FC01918D228D892F90E0805C9F4F821B28
:102F500091098F739927089587EB90E10E94A0173C
:102F600021E0892B09F420E0822F089584E591E186
:102F70000E94A01721E0892B09F420E0822F0895F8
:102F800081EF91E10E94A01721E0892B09F420E054
:102F9000822F0895FC01A48DA80FB92FB11DA35A4B
:102FA000BF4F2C91848D90E001968F739927848F69
:102FB000A689B7892C93A089B1898C91837080648C
:102FC0008C93938D848D981306C00288F389E02D2D
:102FD00080818F7D80830895EF92FF920F931F93DE
:102FE000CF93DF93EC0181E0888F9B8D8C8D9813BC
:102FF0001AC0E889F989808185FF15C09FB7F894C8
:10300000EE89FF896083E889F98980818370806413
:1030100080839FBF81E090E0DF91CF911F910F915E
:10302000FF90EF900895F62E0B8D10E00F5F1F4F6D
:103030000F731127E02E8C8D8E110CC00FB607FC7C
:10304000FACFE889F989808185FFF5CFCE010E940A
:10305000CA17F1CFEB8DEC0FFD2FF11DE35AFF4F97
:10306000F0829FB7F8940B8FEA89FB898081806298
:10307000CFCFCF93DF93EC01888D8823B9F0AA8955
:10308000BB89E889F9898C9185FD03C0808186FD23
:103090000DC00FB607FCF7CF8C9185FFF2CF808172
:1030A00085FFEDCFCE010E94CA17E9CFDF91CF9106
:1030B000089580E090E0892B29F00E94C0178111CB
:1030C0000E94000080E090E0892B49F080E090E0D1
:1030D000892B29F00E94000081110E94000080E0ED
:1030E00090E0892B29F00E94B61781110E94000000
:1030F00080E090E0892B29F00E94AC1781110C949C
:1031000000000895CF92EF92FF920F931F93DC017E
:10311000ED91FC9111970488F589E02D5696CC909D
:1031200019951F910F91FF90EF90CF900895FC019A
:10313000DC01A956BF4F8C91811103C0862F90E00E
:10314000089567FD02C0128EF9CF228D21111DC096
:10315000862F90E0262F207E203C59F426E0880F11
:10316000991F2A95E1F7807C9770948F838F81E077
:1031700008C0807F803E11F76295607F138E648F58
:1031800082E0828F90E080E00895838D948D2230DC
:1031900059F420E4629FB0011124607C7F70682B99
:1031A000792B748F638FE3CF6F73862B948F838F0C
:1031B000128E08954F925F926F927F928F929F929C
:1031C000AF92BF92CF92DF92EF92FF920F931F9335
:1031D000CF93DF93FC01EA58FF4F208121111FC0DC
:1031E000F62EEC010E9497184C01892BC1F02DE0BE
:1031F000F216A9F0FE01E254FF4F8081882311F1FD
:1032000030E28316910418F44AE0F41208C0E88111
:10321000F98106A0F7A1E02DB401CE01199581E056
:1032200090E0DF91CF911F910F91FF90EF90DF9091
:10323000CF90BF90AF909F908F907F906F905F9056
:103240004F9008955AE08516910419F480E2882E73
:10325000912C5E018EE9A80EB11CD5018D919C9137
:10326000009709F0D7C02E892230A1F5F401B0975C
:10327000E036F105A0F6E15AFD4D849190E0069606
:10328000887FE0E1F0E02F8930E02E9F20012F9F22
:10329000500C3E9F500C11248E0105581F4FAE015B
:1032A00049585F4F3A015AE0F51241C0F801808158
:1032B0009181A281B381840D951DA11DB11D8083D3
:1032C0009183A283B383D3011D921D921D921C9200
:1032D0001397A5CF8DEF820F8630E8F4A4014052FA
:1032E00051094036510508F09ACFB6E02B9F900166
:1032F0001124F901E254FA4D85919591A591B4916B
:10330000840F951FFC01849190E0F901E054FA4D7F
:10331000E491F0E0B8CFE8E0F0E086E090E0213022
:1033200009F4B1CFF0E0E0E090E080E0ACCFFE0146
:10333000EE56FF4F4081442399F1289FA001299F19
:10334000500D389F500D1124F301C080D180E280D0
:10335000F380C40ED51EE11CF11CE881F981028CBA
:10336000F38DE02DCE011995092E000CAA0BBB0B95
:103370008C159D05AE05BF059CF4F80180819181F7
:10338000A281B381840D951DA11DB11D8083918300
:10339000A283B383D3011D921D921D921C92139799
:1033A000FE01ED56FF4F80818823D9F0F801C080DF
:1033B000D180E280F380E881F981008CF18DE02DED
:1033C000CE011995092E000CAA0BBB0BC816D90605
:1033D000EA06FB0634F0D8011D921D921D921C9244
:1033E0001397F801E080F18002811381D3012D91C0
:1033F0003D914D915C91E881F9810488F589E02D3A
:10340000CE88B401CE011995092E000CAA0BBB0B76
:10341000F30118C0FAE0FF1222C0FE01E958FF4F85
:1034200010821182128213820896FC018491FE019F
:10343000E558FF4F9F89899FC0011124092E000C78
:10344000AA0BBB0B4081518162817381840F951F50
:10345000A61FB71F80839183A283B383E0CEFC01B4
:103460003696259134912815390508F4D8CE9C015B
:103470002C5F3F4FF901459154918416950608F44D
:10348000CECEF90125913491FC01329645905590AC
:1034900065907490C401821B930B29E0289FF00172
:1034A000299FF00D11244E0E5F1EF2013496849177
:1034B0003196E4919E0129583F4F3901882309F440
:1034C0009EC0EE2309F49BC0F20137969491FE0151
:1034D000EE56FF4F20818E0105581F4F222309F41D
:1034E00049C02F89E82FF0E0E90FF11D97FDFA950B
:1034F0002E9F60012F9FD00C11240D2C000CEE0884
:10350000FF08F30180819181A281B381C80ED91E89
:10351000EA1EFB1EE881F981028CF38DE02DCE01BD
:103520001995092E000CAA0BBB0B8C159D05AE0539
:10353000BF0504F5D3011D921D921D921C92139795
:10354000D501ED91FC9138968491EF898E9FC00151
:103550001124092E000CAA0BBB0BF80140815181EC
:1035600062817381840F951FA61FB71F808391838B
:10357000A283B383FE01ED56FF4F80818823D1F0F3
:10358000D801CD90DD90ED90FC90E881F981008C20
:10359000F18DE02DCE011995092E000CAA0BBB0B65
:1035A000C816D906EA06FB062CF0F8011082118233
:1035B00012821382AE80BF80C884D984D8010D9155
:1035C0001D912D913C91F301408151816281738164
:1035D000E881F9818F898F938D858F938C858F9367
:1035E0008B858F938A858F930284F385E02D7401F8
:1035F000CE0119950F900F900F900F900F90F20140
:1036000036968491EF898E9FC0011124FDCEFC0176
:10361000EB58FF4F2081222331F08F589F4FFC0140
:103620008081918108958B5B9F4FF9CF1092BC14DC
:103630001092BD141092AC141092AD141092AE14EE
:103640001092AF141092B0141092B1141092B214E0
:103650001092B31410929C1410929D1410929E1408
:1036600010929F141092A0141092A1141092A21400
:103670001092A3148091881490918914092E000C43
:10368000AA0BBB0B8093A4149093A514A093A6142B
:10369000B093A71487E494E10E94071B092E000C45
:1036A000AA0BBB0B8093A8149093A914A093AA14FF
:1036B000B093AB1487E494E10E943013092E000C00
:1036C000AA0BBB0B8093B4149093B514A093B614BB
:1036D000B093B71487E494E10E94071B092E000CF5
:1036E000AA0BBB0B8093B8149093B914A093BA148F
:1036F000B093BB140895FC0126A9222349F016AA11
:1037000080E591E00E942D1360E085E30C94141491
:1037100008950CB405FC0DC09EBD00000DB407FE5D
:10372000FDCF9EB58EBD00000DB407FEFDCF8EB55A
:1037300008958EBD00000DB407FEFDCF8EB59EBD71
:1037400000000DB407FEFDCF9EB50895FC01208159
:103750002EBD9B012150310941F051810DB407FE6E
:10376000FDCF4EB55EBD4193F5CF61507109860F17
:10377000971F0DB407FEFDCF2EB5FC0120830895E1
:10378000E091300DF091310D808190912F0D892BBA
:1037900080830895E091300DF091310D90818091FA
:1037A0002F0D80958923808308958EBD00000DB470
:1037B00007FEFDCF8EB50895CF92DF92EF92FF9274
:1037C0001F93CF93DF936A017B01192F187F9C0110
:1037D00093E0369527959A95E1F7D22FDC7FC82F95
:1037E000CC0FCC0FCC0F81E0C81AD108E108F1084A
:1037F0008FEFC816D806E806F80651F0812F0E9410
:10380000D51B8D2F0E94D51B8C2F0E94D51BEBCF73
:10381000DF91CF911F91FF90EF90DF90CF900895AF
:103820004F925F926F927F928F929F92AF92BF92D0
:10383000CF92DF92EF92FF920F931F93CF93DF937C
:1038400000D01F92CDB7DEB72A0109831A832B83DC
:103850003C83FC01E75BFF4F4FEF5FEF60E070E000
:103860004083518362837383835B9F4FFC0140835A
:1038700051836283738360E089E00E9414148AE2BA
:103880000E94D51B61E089E00E941414C2010E94CD
:10389000891BC6010E94891B60E089E00E94141404
:1038A0008BE20E94D51B61E089E00E94141489819B
:1038B0009A810E94891BC4010E94891B60E089E0F3
:1038C0000E9414148CE20E94D51B61E089E00F90E5
:1038D0000F900F900F90DF91CF911F910F91FF905C
:1038E000EF90DF90CF90BF90AF909F908F907F90A0
:1038F0006F905F904F900C941414AF92BF92CF9240
:10390000DF92EF92FF920F931F93CF93DF9300D03C
:1039100000D01F921F92CDB7DEB78C017B016A01E8
:103920008091880F8333E1F45801A40EB51EA016D0
:10393000B10609F46FC00E94CA1B80EF0E94D51B1C
:10394000812F0E94D51B802F0E94D51B0F5F1F4F18
:10395000F70181917F010E94D51B0E94C01BE7CF18
:103960005B01A40EB51E8433C1F40E94CA1B1983E7
:103970000A838D2D80688B83CC8264E070E0CE0159
:1039800001960E94A61BAE14BF0409F441C0F701C2
:1039900081917F010E94D51BF6CF0E94CA1B0F3F69
:1039A000110509F028F419820A8384E08B830CC086
:1039B00017FD17C019820A8333E0169507953A95CB
:1039C000E1F7007E0C600B8386E0C816D104A0F5F9
:1039D000F701DE011496EA15FB0599F081918D93AC
:1039E000FACFC80126E0969587952A95E1F7807E63
:1039F00019830A830115104C10F48461D7CF8C61B0
:103A0000D5CFB6016D5F7F4FCE0101960E94A61BF8
:103A10000E94C01BC60128960FB6F894DEBF0FBEE9
:103A2000CDBFDF91CF911F910F91FF90EF90DF906D
:103A3000CF90BF90AF90089563E070E0CE01019603
:103A40000E94A61BF70181917F010E94D51BAE1435
:103A5000BF04C1F7DDCFCF93DF931F92CDB7DEB7A1
:103A6000898341E050E0BE016F5F7F4F90E080E0CE
:103A70000E947D1C0F90DF91CF91089590E02091DE
:103A8000880F233339F40C96982F990F990F990FBB
:103A900080E008954896F8CFDA01E0912E0DF0E02D
:103AA000FE2FEE27E60FF71F90E0982F8827A90139
:103AB000BD018E0F9F1F0C947D1CCF93DF931F922F
:103AC0001F92CDB7DEB779836A8322E030E0AE0182
:103AD0004F5F5F4F60E170E00E944C1D0F900F90B0
:103AE000DF91CF910895CF93DF931F921F92CDB7AF
:103AF000DEB779836A8322E030E0AE014F5F5F4F2B
:103B000064E070E00E944C1D0F900F90DF91CF9108
:103B10000895CF93DF931F92CDB7DEB720912E0D7E
:103B200030E0322F2227260F371F90E0982F88276A
:103B3000498341E050E0BE016F5F7F4F820F931FCA
:103B40000E947D1C0F90DF91CF910895CF93DF935A
:103B50001F92CDB7DEB76983DC01ED91FC91028045
:103B6000F381E02D41E050E0BE016F5F7F4F19957A
:103B70000F90DF91CF910895CF93DF931F92CDB730
:103B8000DEB76983DC01ED91FC910280F381E02DC9
:103B900041E050E0BE016F5F7F4F19950F90DF91BC
:103BA000CF910895FC019485FB018485981303C08F
:103BB00081E0983008F080E00895CF93DF931F9262
:103BC000CDB7DEB76983DC01ED91FC910280F38112
:103BD000E02D41E050E0BE016F5F7F4F19950F90DF
:103BE000DF91CF910895089521E0FC0126AB61E0BB
:103BF00085E30C941414CF93C82F80917D148823EF
:103C000051F010927D1480E591E00E942D1360E048
:103C100085E30E94141461E089E00E9414148C2F43
:103C20000E94D51B60E085E30E94141480917E14ED
:103C3000811109C080917D14811105C087E494E150
:103C4000CF910C94F41DCF910895CF93C82F8091FC
:103C50007D14882351F010927D1480E591E00E943C
:103C60002D1360E085E30E94141460E089E00E9457
:103C700014148C2F0E94D51B61E089E00E9414145B
:103C800080917E14811109C080917D14811105C03D
:103C900087E494E1CF910C94F41DCF910895CF93D4
:103CA000C82F80917D14882351F010927D1480E5F7
:103CB00091E00E942D1360E085E30E94141486E3D6
:103CC0000E94251EC370C0936014C230D1F0C3306F
:103CD00009F45CC088E4C130A9F488E20E94FB1DAD
:103CE00080EE91E0A0E0B0E0809388149093891476
:103CF000A0938A14B0938B1480E491E0A0E0B0E02C
:103D000013C088E80E94FB1D80E491E0A0E0B0E0D1
:103D10008093881490938914A0938A14B0938B1481
:103D200080EE91E0A0E0B0E080938C1490938D142D
:103D3000A0938E14B0938F1483E290E00197F1F773
:103D400080917E1481110BC080917D14811107C078
:103D500081E080937D1461E085E30E9414148FEF6D
:103D60009FEFA0E0B0E08093901490939114A09303
:103D70009214B09393148093941490939514A093F9
:103D80009614B0939714CF910C94161B88EEA6CF7F
:103D90000F931F93CF93DF93EC018B018EA98823A0
:103DA00049F01EAA80E591E00E942D1360E085E3B2
:103DB0000E941414812F887F0E94D51BC80123E024
:103DC000969587952A95E1F78C7F0E94D51B802FC9
:103DD000880F880F880F0E94D51B8FA981110AC0F8
:103DE0008EA9811107C0CE01DF91CF911F910F9154
:103DF0000C94F41DDF91CF911F910F9108952F9294
:103E00003F924F925F926F927F928F929F92AF926A
:103E1000BF92CF92DF92EF92FF920F931F93CF93B7
:103E2000DF93CDB7DEB7CB54D1090FB6F894DEBF20
:103E30000FBECDBF1C01DC011696ED90FD900D91DB
:103E40001C911997ED86FE860F87188B1A96ED90B8
:103E5000FD900D911C911D97E98AFA8A0B8B1C8BA2
:103E6000FC01E958FF4FFA87E987E080F180028181
:103E70001381ED82FE820F8318873C01B7E86B0E39
:103E8000711CF30180819181A281B3818E159F0500
:103E9000A007B10759F03497E082F18202831383BF
:103EA000D301ED92FD920D931C931397613271052E
:103EB00008F0C1C06032710509F059C0F101E35644
:103EC000FF4F80817A972F01882399F1408151819A
:103ED00062817381B19680809180B12CA12C329641
:103EE00080819181CD80DE80EF80F884C80ED91E5C
:103EF000E11CF11CC41AD50AE60AF70ABB97008137
:103F0000118122813381D101ED91FC9189899A89B6
:103F1000AB89BC89AA27BB27BF93AF939F938F938D
:103F20000288F389E02DC10119950F900F900F9031
:103F30000F90F101EA55FF4F20813181E985FA8523
:103F400080819181A281B381820F931FA11DB11D38
:103F500080839183A283B383F20180839183A283C0
:103F6000B383F30180839183A283B3834AC06A3011
:103F7000710509F060C0A985BA851D921D921D9238
:103F80001C921397F101ED57FF4F1082118212829C
:103F90001382F3011082118212821382810105586B
:103FA0001F4F1A830983F101EC55FF4F80819181E6
:103FB000D801CD90DD90ED90FC90C80ED91EE11C8B
:103FC000F11CF801C082D182E282F382789680816E
:103FD0008823B9F0D101ED91FC91008CF18DE02D99
:103FE000C1011995092E000CAA0BBB0BC816D906E6
:103FF000EA06FB0634F0E981FA811082118212820E
:104000001382C55BDF4F0FB6F894DEBF0FBECDBF86
:10401000DF91CF911F910F91FF90EF90DF90CF90A4
:10402000BF90AF909F908F907F906F905F904F90D8
:104030003F902F900895F101EE55FF4F80819181BF
:104040001A821982D101A055BF4FE980FA808E15DE
:104050009F0509F47DC1EE0CFF1CED91FC911197B9
:10406000EE0DFF1D208131816217730709F450C2E4
:1040700009811A810F5F1F4F1A830983E6CF1AA2A5
:1040800019A292C31A861986E9C31AA219A21A861E
:10409000198641C40088F189E02D8D849E84AF8407
:1040A000B88873016201098D1A8D2B8D3C8DC10179
:1040B000199557C5411451046104710441F4AD814F
:1040C000BE81EFA1F8A5AE0FBF1FBEA3ADA3FFEF4A
:1040D0004F1A5F0A6F0A7F0A19861A861B861C868A
:1040E0002D893E894F89588D2F5F3F4F4F4F5F4F2E
:1040F0002D8B3E8B4F8B588FA9C441145104610402
:104100007104C1F0D101ED91FC910088F189E02D9D
:104110008D849E84AF84B88873016201098D1A8DE5
:104120002B8D3C8D8DA19EA1AC01990F660B770B59
:10413000C1011995F101E356FF4F8081882309F4ED
:1041400093C5E9ACFAAC0BAD1CAD2D893E894F8906
:10415000588D2E153F05400751070CF485C549853C
:104160005A856B857C85452B462B472B41F46D8109
:104170007E818FA198A5680F791F7AA769A7098505
:104180001A852B853C850F5F1F4F2F4F3F4F0987A7
:104190001A872B873C8768C5411451046104710458
:1041A00001F1D101ED91FC910088F189E02D8D8420
:1041B0009E84AF84B888730162010D8D1E8D2F8D92
:1041C00038A14BA55CA56DA57EA5040F151F261F64
:1041D000371F8DA19EA1AC01990F660B770BC10112
:1041E0001995E984FA840B851C85EF28E02AE12AD9
:1041F00019F109891A894801B12CA12CD101ED913D
:10420000FC910088F189E02DC984DA84EB84FC8478
:104210000D8D1E8D2F8D38A14BA55CA56DA57EA59E
:10422000040F151F261F371F89A59AA5AC01990FEA
:10423000660B770BC10119950D8D1E8D2F8D38A141
:104240000F5F1F4F2F4F3F4F0D8F1E8F2F8F38A3A4
:10425000B7C329A13AA12115310509F441C04BA1E9
:104260005CA1400F511D8A01F101E558FF4F80808C
:104270009180B99680819181880E991E841A950A41
:10428000181419046CF5092C000CAA08BB08690164
:10429000330FEE08FF08012E000C220B330BB197F1
:1042A0004081518162817381D101ED91FC9111971F
:1042B0001D968C911D978F931C968C911C978F93B4
:1042C0001B968C911B978F931A968C918F930288D3
:1042D000F389E02DC10119950F900F900F900F9069
:1042E000F101E958FF4FFE83ED83FF960190F081C5
:1042F000E02DE980FA80EE0DFF1D2081ED81FE8129
:1043000080819181A281B381820F911DA11DB11D78
:1043100080839183A283B383D101D8961C92D897CE
:10432000D7961C92D797D6968C91811103C0C10164
:104330000E94F41DF101E958FF4F80819181A28113
:10434000B3813C9680839183A283B38334960ACE53
:104350000D851E852F853889222733270D871E87D7
:104360002F87388BF101E855FF4F40805180920133
:10437000550C440B550B298B3A8B4B8B5C8BA10155
:104380004A555F4F5E8B4D8BDA014D915C917A01FE
:1043900010E000E0E986FA860B871C87349680815E
:1043A0009181F1974080518062807380480E591E40
:1043B000611C711C9301820149895A896B897C892E
:1043C000041B150B260B370B09831A832B833C83A5
:1043D000E1E0D101D796EC93D797ED91FC9100885D
:1043E000F189E02D8D849E84AF84B888C984DA84F5
:1043F000EB84FC844D815E816F817885C1011995C4
:10440000930182010150110921093109D101ED9176
:10441000FC910088F189E02D8D849E84AF84B8885A
:10442000C984DA84EB84FC844D815E816F81788558
:10443000C101199549885A886B887C88B2E04B1A6B
:1044400051086108710809811A812B813C810F5F35
:104450001F4F2F4F3F4F09831A832B833C83D1017A
:10446000ED91FC910684F785E02D8D849E84AF84C8
:10447000B888730162014D815E816F817885C101C9
:1044800019954D815E816F817885E984FA840B8569
:104490001C854E0D5F1D601F711F41505109610940
:1044A0007109D101ED91FC910684F785E02D8D8491
:1044B0009E84AF84B888730109811A812B813C8165
:1044C000C1011995F10180AD87AB81110BC0F101DC
:1044D00086A9811107C0EE24E394E6AA61E085E392
:1044E0000E941414F101E958FF4FAD89BE892D9146
:1044F0003C912F5F3F4F80819181A281B381820FD8
:10450000931FA11DB11D80839183A283B38312CF1A
:10451000F101EE56FF4F8081810105581F4F910137
:1045200026543F4F5901882309F453C0F101EC543C
:10453000FF4F0190F081E02D29813A81E20FF31FB6
:1045400080814D805E806F807884480E511C611C94
:10455000711CD501ED91FC91E20FF31F4081042EF7
:10456000000C550B660B770B440E551E661E771E0E
:10457000D101ED91FC91028CF38DE02DC1011995D3
:10458000092E000CAA0BBB0B84159505A605B705D3
:1045900004F5F101EC55FF4F20813181F801808154
:1045A0009181A281B381820F931FA11DB11D8083D0
:1045B0009183A283B383A985BA851D921D921D9212
:1045C0001C921397F101ED57FF4F10821182128256
:1045D0001382F101ED56FF4F8081882311F171960E
:1045E00080819181F8014080518062807380480E03
:1045F000591E611C711CD101ED91FC91008CF18D53
:10460000E02DC1011995092E000CAA0BBB0B481611
:1046100059066A067B062CF0F8011082118212827C
:104620001382D501ED91FC9149815A814E0F5F1F94
:10463000E985FA8580819181A281B381892B8A2BBA
:104640008B2B91F4DA018C91082E000C990BAA0B9C
:10465000BB0BB095A095909581959F4FAF4FBF4FE5
:1046600080839183A283B383D101A056BF4F2D9144
:104670003C913AAB29ABD8010D911C91D101A455C5
:10468000BF4F8D919C911197080F191F1C960D908B
:10469000BC91A02DAE0DBF1D8D919C91F801E81B22
:1046A000F90BFCA3EBA3DA012C91E985FA85808153
:1046B00091818C01020F111D27FD1A951E830D8318
:1046C000D101D6968C91D697882351F0D6961C921C
:1046D00080E591E00E942D1360E085E30E941414B0
:1046E00081E0F10180AF87ABE356FF4F80818823E3
:1046F00009F4CBCC7A974081518162817381A9857D
:10470000BA85CD90DC90C41AD50AF3960190F08159
:10471000E02D09811A81E00FF11F80819601280F99
:10472000311D3AA329A3121613060CF0A8CCF101EF
:10473000E854FF4F80819181E80EF91E3C978080FC
:104740009180D7018D919C91881A990A18141904A7
:104750005CF5092C000CAA08BB08F19700811181B7
:1047600022813381D101ED91FC9111971D968C919D
:104770001D978F931C968C911C978F931B968C91F1
:104780001B978F931A968C918F930288F389E02D53
:1047900089A19AA16C01990FEE08FF08C101199532
:1047A0000F900F900F900F90F101ED57FF4F408148
:1047B000518162817381AD81BE812D01BB0F66087D
:1047C00077084415550566057705A4F5BF96019051
:1047D000F081E02DE980FA80EE0DFF1D8080912CA4
:1047E000B12CA12C73016201C41AD50AE60AF70A9A
:1047F000D101ED91FC9111971D968C911D978F938E
:104800001C968C911C978F931B968C911B978F9362
:104810001A968C918F930288F389E02D8BA19CA12D
:104820008C01990F220B330BC10119950F900F903A
:104830000F900F90F101ED57FF4F80819181A28180
:10484000B381481659066A067B060CF01BCCFC01A6
:10485000ED80FE80EE19FF09FA87E987F101EC543B
:10486000FF4F0190F081E02D09811A81E00FF11FC7
:1048700040812D813E81240F311DA901052E000CA0
:10488000660B770BF101EA54FF4F0190F081E02DA8
:10489000E00FF11F8081F101E958FF4FC080D18006
:1048A000E280F380C80ED11CE11CF11C4C155D05A3
:1048B0006E057F0584F5FB960190F081E02DE00FF9
:1048C000F11F8080912CB12CA12CC41AD50AE60AC4
:1048D000F70AD101ED91FC9111971D968C911D97CE
:1048E0008F931C968C911C978F931B968C911B9782
:1048F0008F931A968C918F930288F389E02D8BA168
:104900009CA18C01990F220B330BC10119950F90BB
:104910000F900F900F908D859E85E981FA81EE0FA3
:10492000FF1FEE0FFF1FF8ABEFA7ED80FE80FAA68A
:10493000E9A6FEA2EDA21D8E1E8E1F8E18A209856D
:104940001A85012E000C220B330B09AF1AAF2BAFC7
:104950003CAF2D853E854F855889442755272D87A7
:104960003E874F87588B4BA15CA1052E000C660B30
:10497000770B4BA75CA76DA77EA79C012F71387F93
:10498000790110E000E02196ECAEFDAE0EAF1FAF56
:104990002197807E97708C0130E020E025960CAF47
:1049A0001DAF2EAF3FAF25972D813E81032E000C0A
:1049B000440B550B29962CAF3DAF4EAF5FAF2997F7
:1049C000F101EE54FF4F0190F081E02D49815A81B1
:1049D000E40FF51F0081802F90E0B0E0A0E02D8D66
:1049E0003E8D4F8D58A1281739074A075B070CF0F9
:1049F00030CC1D8A1E8A1F8A188E19861A861B863D
:104A00001C86412C512C3201A1014C545F4F5CABF0
:104A10004BAB8D8D9E8DB10164547F4F7EAB6DABE2
:104A2000ED8CFE8C0F8D18A12BA53CA54DA55EA588
:104A3000E20EF31E041F151FE98EFA8E0B8F1C8FDA
:104A40004BA15CA1480F591F58AF4FABABA9BCA9F4
:104A5000ED91FC91E980FA80EE0DFF1D8081482FD9
:104A600050E070E060E00D891E892F89388D0417B1
:104A70001507260737070CF08FCB2D893E8938A7FD
:104A80002FA3EDA9FEA9A081B181EFA4F8A8AE0DD6
:104A9000BF1D90E00D8D1E8D809FF001819FF00D58
:104AA000909FF00D11242D913C91E20FF31F4D8941
:104AB0005E89E40FF51F69A97AA9E60FF71F7491C3
:104AC0002A967FAF2A97772309F417CB89859A8591
:104AD000AB85BC85892B8A2B8B2BD9F0A989BA8908
:104AE0004D01B12CA12CD101ED91FC910088F189EF
:104AF000E02DC984DA84EB84FC84098D1A8D2B8D1A
:104B00003C8D89A59AA5AC01990F660B770BC10165
:104B100019952A969FAD2A979F3F09F4CBCA411455
:104B2000510461047104E9F0D101ED91FC91EDA013
:104B3000FEA0A701FF0C660B770B01E040165104A5
:104B40006104710409F0A6CA0084F185E02DCD84CA
:104B5000DE84EF84F888098D1A8D2B8D3C8DC10180
:104B60001995D101D496ED91FC91309759F06FA928
:104B700078AD8D819E81EFA0F8A48E0D9F1D1995B3
:104B80009A8B898BC988DA880FE1C02208EFD0227E
:104B9000F12CE12C21962CAD3DAD4EAD5FAD2197B2
:104BA0002C193D094E095F092A961FAD2A97A12F9E
:104BB000B0E0B595A795B595A7950E94E5862B0120
:104BC0003C0196E076946794579447949A95D1F770
:104BD00089889A8820EE822227E09222B12CA12C8B
:104BE00025962CAD3DAD4EAD5FAD25972819390901
:104BF0004A095B09A12FB0E00E94DA86672F782F5F
:104C0000892F9927C40CD51CE61CF71C3FE1C32251
:104C100038EFD322860E971EA81EB91E40EE8422BE
:104C200047E09422C828D928F12CE12CD101ED913C
:104C3000FC910084F185E02D098D1A8D2B8D3C8D22
:104C40004D895E896F89788D29968CAD9DADAEAD0D
:104C5000BFAD2997480F591F6A1F7B1FC1011995C6
:104C600019861A861B861C86412C512C320138CAA3
:104C70002F923F924F925F926F927F928F929F926C
:104C8000AF92BF92CF92DF92EF92FF920F931F935A
:104C9000CF93DF93CDB7DEB7A7970FB6F894DEBFFB
:104CA0000FBECDBF9FA38EA34B012F8B388F498F93
:104CB0005A8FED82FE820F8318871C2DFC01EA5863
:104CC000FF4F80818823D9F090E080E0A7960FB64F
:104CD000F894DEBF0FBECDBFDF91CF911F910F9132
:104CE000FF90EF90DF90CF90BF90AF909F908F900C
:104CF0007F906F905F904F903F902F900895611537
:104D0000710511F3113009F072C0AEA1BFA1169662
:104D1000AD90BD90CD90DC901997ED91FC911197DD
:104D200057968C9157978F931D968C911D978F93C3
:104D30001C968C911C978F931B968C911B978F932D
:104D40001A968C918F930284F385E02D7B010D815F
:104D50001E812F8138854F89588D698D7A8D8EA15E
:104D60009FA11995EEA1FFA1E256FF4F808191818D
:104D70000F900F900F900F900F90009741F4EEA1BD
:104D8000FFA18789F6E08F9FC00111249FCF9C016E
:104D90002C5F3F4FF901459154918416950608F414
:104DA00093CFFC013696459154914815590508F466
:104DB0008BCFF90125913491FC0132968591959123
:104DC000A591B491A401421B530B29E0249FF0014B
:104DD000259FF00D1124E80FF91F3696E491AEA13E
:104DE000BFA157968C91E89FC00111246FCF7B0122
:104DF000B0E2EB1AF1082EEF2C0D273028F4E0E694
:104E0000EE16F10408F060CF123009F0B2C0F701DD
:104E1000EE0FFF1FE154FD4D459155916591749141
:104E20004D87352EF701E15AFD4DE4912E2F30E0EC
:104E300050E040E02B8B3C8B4D8B5E8B40E150E093
:104E400060E070E049875A876B877C87EEA1FFA1FD
:104E5000EB59FF4F40805180628073808F89988D1D
:104E6000A98DBA8D480E591E6A1E7B1EEEA1FFA1A8
:104E7000E759FF4F80819181A281B3812D813E81CD
:104E80004F815885280F391F4A1F5B1F29833A839A
:104E90004B835C83AEA1BFA157962C90C22CD12C22
:104EA000F12CE12CA70196016B897C898D899E8963
:104EB0000E941E879B01AC01240D351D461D571D08
:104EC0002F87388B498B5A8BEEA1FFA1EB5AFF4FEE
:104ED00080809180A280B380281539054A055B0542
:104EE00074F0EEA1FFA1E35AFF4F80819181A2816E
:104EF000B381481659066A067B060CF480C0A701E8
:104F0000960169857A858B859C850E941E872981FB
:104F10003A814B815C81620F731F841F951FEEA144
:104F2000FFA1E75AFF4F20813181428153816217EF
:104F300073078407950794F0EEA1FFA1EF59FF4F87
:104F400080819181A281B38149815A816B817C8169
:104F5000481759076A077B070CF451C0312C6B893D
:104F60007C89269EC001279E900D369E900D1124AF
:104F7000ADCE2DEF210F263008F036C056E0159F3C
:104F800090011124F901E454FA4D45915591659130
:104F90007491F701EE0FFF1FE40FF51F4591559136
:104FA000659174914D87352EF901E254FA4D859142
:104FB0009591A591B4918E0D9F1DFC018491482F70
:104FC00050E070E060E04B8B5C8B6D8B7E8BF90169
:104FD000E054FA4DE4916E2F70E090E080E0698734
:104FE0007A878B879C8732CF1D86312C19861A864B
:104FF0001B861C861B8A1C8A1D8A1E8A27CF481482
:1050000059046A047B040CF4D5C1EEA1FFA1E35A54
:10501000FF4F80819181A281B3812F853889498991
:105020005A89281739074A075B070CF0C3C1EEA15C
:10503000FFA1E75AFF4F80819181A281B38149810D
:105040005A816B817C81481759076A077B070CF4EA
:10505000B1C1A701960169857A858B859C850E94DF
:105060001E8729813A814B815C81620F731F841FE7
:10507000951F01E0EEA1FFA1EF59FF4FC080D18045
:10508000E280F3806C157D058E059F050CF400E031
:10509000123009F09AC48B899C89AD89BE89069625
:1050A000A11DB11DAC01BD0113E075956795579524
:1050B00047951A95D1F74F87588B698B7A8BAEA19C
:1050C000BFA116964D915D916D917C9119971A969D
:1050D0008D919D910D90BC91A02D481759076A079D
:1050E0007B0731F0B1E02B1203C0002309F487C322
:1050F00081E0EEA1FFA187AB8D85932D98A38F8FC3
:105100001B8E1C8E1D8E1E8EB3E02B2E09851A85DC
:105110002B853C854B8D5C8D6D8D7E8DAEA1BFA1A9
:10512000041715072607370709F446C31A964D904A
:105130005D906D907C901D9716968D919D910D9030
:10514000BC91A02D84159505A605B70549F1EEA1E2
:10515000FFA18788912CB12CA12C2B893C894D89EA
:105160005E89C501B4010E941E876B017C0101901C
:10517000F081E02D7F926F925F924F920288F389C7
:10518000E02D0D811E812F8138854F89588D698DC5
:105190007A8D8EA19FA119950F900F900F900F906F
:1051A0004F88588C698C7A8C1E861D86AEA1BFA153
:1051B00057962C915797ED85FE85EF84F888EE156C
:1051C000FF0509F4D8C20F8D18A1E00FF11F34902C
:1051D000332009F4E4C0C301B201EF88F88C098DD3
:1051E0001A8D6E197F09800B910B213009F0E4C0F4
:1051F00037FE14C01696CD90DD90ED90FC90199777
:10520000ED91FC9111970084F185E02D0D811E81B7
:105210002F813885B301A201CD01199536FE1AC040
:10522000AEA1BFA11696CD90DD90ED90FC901997A0
:10523000ED91FC9111970084F185E02D0D811E8187
:105240002F813885B301A2014F5F5F4F6F4F7F4FB2
:10525000CD01199535FE19C0EEA1FFA1C680D780FA
:10526000E084F1840190F081E02D0084F185E02D4F
:105270000D811E812F813885B301A2014E5F5F4FE2
:105280006F4F7F4F8EA19FA1199534FE1AC0AEA11A
:10529000BFA11696CD90DD90ED90FC901997ED9101
:1052A000FC9111970084F185E02D0D811E812F81E5
:1052B0003885B301A2014D5F5F4F6F4F7F4FCD0126
:1052C000199533FE19C0EEA1FFA1C680D780E084F6
:1052D000F1840190F081E02D0084F185E02D0D81B5
:1052E0001E812F813885B301A2014C5F5F4F6F4F44
:1052F0007F4F8EA19FA1199532FE1AC0AEA1BFA10A
:105300001696CD90DD90ED90FC901997ED91FC9163
:1053100011970084F185E02D0D811E812F81388544
:10532000B301A2014B5F5F4F6F4F7F4FCD011995C6
:1053300031FE19C0EEA1FFA1C680D780E084F184C0
:105340000190F081E02D0084F185E02D0D811E811A
:105350002F813885B301A2014A5F5F4F6F4F7F4FA6
:105360008EA19FA1199530FE1AC0AEA1BFA11696BD
:10537000CD90DD90ED90FC901997ED91FC911197F7
:105380000084F185E02D0D811E812F813885B301C8
:10539000A201495F5F4F6F4F7F4FCD011995ED859A
:1053A000FE853196FE87ED87F8E04F0E511C611C9B
:1053B000711CFCCE01E06CCEC22ED12CF12CE12C64
:1053C000A70196010E941E870F89188D298D3A8D9D
:1053D000060F171F281F391F09831A832B833C834D
:1053E00037FE28C0AEA1BFA1ED91FC91119719968F
:1053F0008C9119978F9318968C9118978F93179675
:105400008C9117978F9316968C918F930288F389BE
:10541000E02D460157010D811E812F81388549817C
:105420005A816B817C818EA19FA119950F900F905D
:105430000F900F9036FE32C0EEA1FFA1C788D12C8D
:10544000F12CE12C49815A816B817C814C0D5D1DD1
:105450006E1D7F1D0190F081E02DAEA1BFA11996B8
:105460008C9119978F9318968C9118978F93179604
:105470008C9117978F9316968C918F930288F3894E
:10548000E02D460157010D811E812F8138858EA1A7
:105490009FA119950F900F900F900F9035FE3AC075
:1054A000EEA1FFA14789C42ED12CF12CE12C50E0B4
:1054B000440F551F052E000C660B770B09811A81CE
:1054C0002B813C81400F511F621F731F0190F0819F
:1054D000E02DAEA1BFA119968C9119978F931896C4
:1054E0008C9118978F9317968C9117978F93169688
:1054F0008C918F930288F389E02D460157010D812D
:105500001E812F8138858EA19FA119950F900F9034
:105510000F900F9034FE3AC0EEA1FFA14789C42E30
:10552000D12CF12CE12C429DA0011124052E000C60
:10553000660B770B09811A812B813C81400F511F2B
:10554000621F731F0190F081E02DAEA1BFA11996DB
:105550008C9119978F9318968C9118978F93179613
:105560008C9117978F9316968C918F930288F3895D
:10557000E02D460157010D811E812F8138858EA1B6
:105580009FA119950F900F900F900F9033FE3BC085
:10559000EEA1FFA14789C42ED12CF12CE12CF4E01F
:1055A0004F9FA0011124052E000C660B770B09817B
:1055B0001A812B813C81400F511F621F731FAEA1C6
:1055C000BFA1ED91FC91119719968C9119978F932A
:1055D00018968C9118978F9317968C9117978F9395
:1055E00016968C918F930288F389E02D460157011E
:1055F0000D811E812F8138858EA19FA119950F9055
:105600000F900F900F9032FE3BC0EEA1FFA1478993
:10561000C42ED12CF12CE12CF5E04F9FA0011124D8
:10562000052E000C660B770B09811A812B813C81BA
:10563000400F511F621F731FAEA1BFA1ED91FC91DE
:10564000119719968C9119978F9318968C9118979A
:105650008F9317968C9117978F9316968C918F93A3
:105660000288F389E02D460157010D811E812F81AB
:1056700038858EA19FA119950F900F900F900F90D4
:1056800031FE3BC0EEA1FFA14789C42ED12CF12CE5
:10569000E12CF6E04F9FA0011124052E000C660BB3
:1056A000770B09811A812B813C81400F511F621FAA
:1056B000731FAEA1BFA1ED91FC91119719968C912A
:1056C00019978F9318968C9118978F9317968C91A2
:1056D00017978F9316968C918F930288F389E02DFC
:1056E000460157010D811E812F8138858EA19FA112
:1056F00019950F900F900F900F9030FE50CEEEA1A5
:10570000FFA14789C42ED12CF12CE12CF7E04F9F4B
:10571000A0011124052E000C660B770B09811A815C
:105720002B813C81400F511F621F731FAEA1BFA18F
:10573000ED91FC91119719968C9119978F9318966A
:105740008C9118978F9317968C9117978F93169625
:105750008C918F930288F389E02D460157010D81CA
:105760001E812F8138858EA19FA119950F900F90D2
:105770000F900F9014CEED80FE800F811885E20E01
:10578000F11C011D111DED82FE820F8318870B8D08
:105790001C8D2D8D3E8D0F5F1F4F2F4F3F4F0B8F59
:1057A0001C8F2D8F3E8F2F8D38A14F855889240F48
:1057B000351F38A32F8FAACCD8968C91D897D7961F
:1057C0008C93D79781110CC0D6968C91811108C00B
:1057D00081E0EEA1FFA186AB61E085E30E94141495
:1057E000AEA1BFA157962C9130E0EB89FC892E9F8A
:1057F000C0012F9F900D3E9F900D112467CAAEA14E
:10580000BFA1D6968C91D697882351F0D6961C923C
:1058100080E591E00E942D1360E085E30E9414145E
:1058200089809A80AB80BC80E984FA840B851C85D2
:105830008E0C9F1CA01EB11E01E0801A9108A108C9
:10584000B108CB88DC88ED88FE88C40CD51CE61C2A
:10585000F71C11E0C11AD108E108F108AEA1BFA1FF
:10586000ED91FC911197068CF78DE02D09811A813D
:105870002B813C81B301A201CD0119956D84732C5C
:10588000C12CD12C760109851A852B853C850C15F8
:105890001D052E053F0509F491C08B889C88AD88B5
:1058A000BE8810E000E02301400E511E2F8538898C
:1058B0002017310709F457C0F201249078E0472EF1
:1058C000512CE0E83E2E81149104A104B10469F149
:1058D000822D832169F1AEA1BFA117968C91887F9B
:1058E0000E94D51BEEA1FFA186819781A085B1857D
:1058F00063E0B695A795979587956A95D1F78C7FC4
:105900000E94D51BAEA1BFA116968C91880F880F5F
:10591000880F0E94D51BB1E08B1A9108A108B1082D
:105920003694E1E04E1A510871F60F5F1F4FBBCF5E
:10593000EEA1FFA18385887F0E94D51BEEA1FFA168
:1059400082859385A485B58553E0B695A7959795EF
:1059500087955A95D1F78C7F0E94D51BAEA1BFA128
:105960001A968C91D3CF89288A288B2801F1AEA171
:10597000BFA11B968C91887F0E94D51BEEA1FFA131
:1059800082859385A485B58543E0B695A7959795BF
:1059900087954A95D1F78C7F0E94D51BAEA1BFA1F8
:1059A0001A968C91880F880F880F0E94D51BBFEF25
:1059B000CB1ADB0AEB0AFB0A320165CFEEA1FFA18D
:1059C00087A981110DCF86A901CFAEA1BFA1D6961F
:1059D0008C91D697882351F0D6961C9280E591E061
:1059E0000E942D1360E085E30E94141481E0EEA173
:1059F000FFA187AB2B893C894D895E8969857A85B2
:105A00008B859C850E941E876F87788B898B9A8BEC
:105A1000468157816085718582859385A485B5858A
:105A2000481759076A077B0709F01FC2002309F4CA
:105A3000CFC08D85932D98A38F8FF1E0FD871982BC
:105A40001A821B821C82EF84F88809891A892981AD
:105A50003A814B815C812E153F05400751070CF0C0
:105A6000BEC2EF8DF8A12491EEA1FFA1868197819E
:105A7000A085B18527FF70C21C012F77F1E0FD875B
:105A80002F5F298769817A818B819C812B893C8951
:105A90004D895E890E94BB8629013A014B015C0158
:105AA000AEA1BFA15796CC90D12CF12CE12CAC012A
:105AB0009B01C701B6010E941E870F89188D298D91
:105AC0003A8D060F171F281F391F0B8F1C8F2D8F24
:105AD0003E8FA3019201C701B6010E941E874D802F
